:0A0000000C945B000C9400000C94BB
:10000A008B000C948C000C9400000C9400000C944F
:10001A0000000C9400000C9400000C9400000C9456
:10002A0000000C9400000C9400000C9400000C9446
:10003A0000000C9400000C9400000C9400000C9436
:10004A0000000C9400000C940000960047616D6556
:10005A00204F76657221212100596F7572207363D2
:10006A006F72652069732000507265737320746F14
:10007A00207374617274000001002D4E414E0049D4
:10008A004E46000080C00100CF0254000D006002FD
:10009A0056000F006D0263000F007C02720001001F
:1000AA00DB0282000200DF028E000000F894EE27D5
:1000BA00ECBBF1E0FBBFEBBFE5BFF8E1F1BDE1BD91
:1000CA008DE0A2E0BB27ED938A95E9F780E098E0FE
:1000DA00A0E6ED930197E9F7E0E9F0E085919591C3
:1000EA00009761F0A591B59105901590BF01F001B7
:1000FA0005900D920197E1F7FB01F0CFEFE5EDBF17
:10010A00E8E0EEBFC0E6D2E00C94100218950A921D
:10011A001A92FA926A937A938A939A93AA93BA93BF
:10012A00EA93FA93EFB7EA93F20131962F01E4E6E4
:10013A00F0E00E946903E2E0F0E0E415F50511F44D
:10014A0044245524E991EFBFF991E991B991A99114
:10015A009991899179916991F990199009901895D5
:10016A00E1E0F0E04F01E0E1F0E08E169F06ACF42A
:10017A00AA24BB24E1E0F0E0EA15FB0554F00E9452
:10018A006D030E9473030E947B03F50131965F01A0
:10019A00F1CFF40131964F01E6CFE0E0F0E0E093D1
:1001AA00CD02F093CE02E093CB02F093CC026F0122
:1001BA005F014F013F012F01E6E9F0E0E093CF0232
:1001CA00F093D0020895E0E0EA934A920E94E50291
:1001DA00E8E5EA930E940503E0E0EA93E1E0F0E053
:1001EA00E419F509EA930E94E502E0E2EA930E9423
:1001FA00050308950E94F602E0E6F2E00E948003F9
:10020A00E0E0EA93E1E0EA930E94E502E091CD02A0
:10021A00F091CE02FA93EA93E1EDF2E0FA93EA93CF
:10022A000E946B02EDE6F2E00E948003E1EDF2E04B
:10023A000E948003B09B06C0E8EEF3E00E946903C7
:10024A008FDFE9D0F7CFAFE8B2E0F2010E94840372
:10025A00E130A0E0FA0709F4CDDFAFE8B2E0E1E06F
:10026A00F0E0E419F5090E948403E230A0E0FA07FD
:10027A0009F4C0DFE0918F02F0919002329741F0C9
:10028A00E0919102F0919202E230A0E0FA07E1F4E3
:10029A00ADECB2E0ED91FD913196FE93EE93A09113
:1002AA00CD02B091CE0212977CF0A091CD02B0910E
:1002BA00CE020E948B03309739F4AFECB2E0ED9195
:1002CA00FD913197FE93EE93F60131966F010E94EC
:1002DA009702DF010E948B03EC0DFD1DDF010E94D6
:1002EA008B036F010E949702EC0DFD1DDF01E4E014
:1002FA00F0E00E9413043F01E1E0F0E0E615F705A3
:10030A0031F40E949003E1E0F0E00E949803062C89
:10031A00072851F40E9490030E947B030E94A503C0
:10032A00E1E0F0E0ED93FC93E3E0F0E0E615F70599
:10033A0051F40E9490030E947B030E94A503E2E00D
:10034A00F0E0ED93FC93E2E0F0E0E615F70531F416
:10035A000E949003E2E0F0E00E949803E1E0F0E0FE
:10036A004F01EFE0F0E08E169F06E4F40E946D0361
:10037A00EA0FFB1F0E94B0030E942104D001ED93F3
:10038A00FC930E946D03EA0FFB1F32960E94B00392
:10039A0012960E942104D001ED93FC93F401319648
:1003AA004F01DFCF0895EFE0F0E04F01E1E0F0E028
:1003BA008E169F067CF1AA24BB24E2E0F0E0AE167A
:1003CA00BF0624F58A92AA920E94E5020E946D0352
:1003DA000E9473030E942104E130A0E0FA0711F49D
:1003EA00E0E30DC00E946D030E9473030E94210482
:1003FA00E230A0E0FA0711F4E1E301C0E0E2EA9397
:10040A000E940503F50131965F01D7CFF4013197B8
:10041A004F01CCCF0895E0E0EBBBEABBE8BBE7BBFA
:10042A00E5BBE4BBE2BBE1BBE3BFE2BFECBFEFBDB0
:10043A00EEBDEDBDECBDE7BDE6BDEBBDEABDE9BD78
:10044A00E8BDE2BDE5BDE4BDE3BDEBB7E06AEBBFE5
:10045A00E8E0E5BFE0E4E4BFE0EAEABFE0E0E9BFE4
:10046A00EAB9E0E8E8B9E0E0E0BFE6B9EDB9E6BF2D
:10047A00E0E1EA930E9435037894ECE7F2E00E9407
:10048A008003B09B21C0E2E3F0E00E946903ABEC79
:10049A00B2E0ED91FD913196FE93EE93319783DFB1
:1004AA0092DEE091CF02F091D002A091CB02B091FE
:1004BA00CC020E941304309731F4C5DEE0E0E093E9
:1004CA00CB02E093CC02E3CFDCCFFFCFA991B99165
:1004DA00E991F99130962AF4E095F09531966DE21A
:1004EA006D93E89480E197E20DD088EE93E00AD00C
:1004FA0084E6992707D08AE005D06E2F10D06627A8
:10050A006C9308956627E817F90720F06395E81BAE
:10051A00F90BC9F7662311F416F008956894605D23
:10052A006D930895E091DB02F091DC026091DD02A7
:10053A007091DE02ADE6BEE486EC91E40E94E0032F
:10054A00EE59F8486F4F7F4FE093DB02F093DC02DD
:10055A006093DD027093DE02FB01FF770895E88164
:10056A00E07111F0DC9A01C0DC98E881E07211F0C8
:10057A00DD9A01C0DD98E881E07411F0DE9A01C0CD
:10058A00DE98E881E07811F0DF9A01C0DF9885E013
:10059A008A95F1F7DA9A8DE08A95F1F7DA988DE083
:1005AA008A95F1F78FC0E881EA93D9DFE881E2956D
:1005BA00E883E881EA93D3DF85E88A95F1F782C078
:1005CA00E881F0E0E152FD4FE081A981EA0FEA9368
:1005DA00EADFE981E093E302E881E093E40222960C
:1005EA000895E2E00E94B703ECE0EA93DCDFE1E081
:1005FA000E94B703E0E0E093E402E093E302089587
:10060A00A881AA3031F0E091E502A091E302AE1789
:10061A0068F0E0E0EA93E091E402EF5FE093E4023D
:10062A00EA93CEDFA881AA3009F44CC0E091E30234
:10063A00EF5FE093E302D89AE881EA93B4DFD898AF
:10064A0041C01A93A981BA81ED91A983BA831E2F59
:10065A00E03019F01A93D4DFF5CF18812396089564
:10066A00D49AD59AD69AD79AD29AD09AD19ADA980F
:10067A00D898D998E881E093E502E058E093E1023E
:10068A00E881E054E093E202E4E1F0E00E946903C9
:10069A000E94BD030E94BD030E94BD03E0E2EA93EB
:1006AA005EDF88EC90E00197F1F7E8E2EA937BDFFE
:1006BA00E4E0EA9378DFE5E8EA9375DFE6E0EA93B7
:1006CA0072DF8FDF21960895FA93EA930C94C6039A
:1006DA00F401ABE8B2E00E94D6030895AE0FBF1F43
:1006EA00F501EE0FFF1FAE0FBF1F0895E0E0F0E027
:1006FA00ED93FC930895FA93EA930C942603EE0F74
:10070A00FF1FAE0FBF1F0E9421040895E2E0F0E030
:10071A000E9413040895A7ECB2E0F601EE0FFF1F42
:10072A00AE0FBF1F0895ED93FC93A7ECB2E0E1E092
:10073A00F0E0EC19FD09EE0FFF1FAE0FBF1FD6CF79
:10074A00A7ECB2E0E1E0F0E0EC19FD09EE0FFF1FC3
:10075A00AE0FBF1F08950F01D4010E94DB03A157FA
:10076A00BD4F0895EA930E94D802E3E0F0E0ACCFCF
:10077A00E0E3EA930E94B40288EC90E00197F1F773
:10078A000895E991F991309639F080ED97E0019753
:10079A00F1F7A8953197C9F70895F195E195F040D9
:1007AA000895EE0FFF1FEE0FFF1F0895AA0FBB1F3C
:1007BA00AA0FBB1F08957A9F702D6B9F700DF89F2B
:1007CA00700DE99F700D6A9F602D710DFB9F600D82
:1007DA00711DE89F600D711D8827FA9FF02D610D2C
:1007EA00781FEB9FF00D611D781FEA9FE02DF10D38
:1007FA00681F781F08950024112490E1AA0FBB1FD7
:10080A00001C111C0E1A1F0A18F40E0E1F1E01C01E
:10081A00A1609A9599F7FD01D0010895E894B7FF70
:10082A0004C0A095B09511966894F7FDB6DFE3DF92
:10083A00FD010EF4B2DF0895ED91FC911197089530
:00000001FF
