:060000000C945B000C945F
:1000060000000C9400000C94D5000C9400000C9495
:1000160000000C9400000C9400000C9400000C945A
:1000260000000C9400000C9400000C9400000C944A
:1000360000000C9400000C9400000C9400000C943A
:1000460000000C9400000C9400000C940000960034
:1000560047616D65204F76657221212100596F75C4
:10006600722073636F726520697320005072657326
:100076007320746F207374617274000001002D4E3A
:10008600414E00494E46000080C00100CF02540098
:100096000D00600256000F006D0263000F007C0227
:1000A60072000100DB0282000200DF028E00000007
:1000B600F894EE27ECBBF1E0FBBFEBBFE5BFF8E140
:1000C600F1BDE1BD8DE0A2E0BB27ED938A95E9F78E
:1000D60080E098E0A0E6ED930197E9F7E0E9F0E02B
:1000E60085919591009761F0A591B5910590159030
:1000F600BF01F00105900D920197E1F7FB01F0CFEA
:10010600EFE5EDBFE8E0EEBFC0E6D2E00C940F02EB
:10011600E1E0F0E04F01E0E1F0E08E169F06ACF47E
:10012600AA24BB24E1E0F0E0EA15FB0554F00E94A6
:1001360067030E946D030E947503F50131965F0106
:10014600F1CFF40131964F01E6CFE0E0F0E0E09325
:10015600CD02F093CE02E093CB02F093CC026F0176
:100166005F014F013F012F01E6E9F0E0E093CF0286
:10017600F093D0020895E0E0EA934A920E94E302E7
:10018600E8E5EA930E940303E0E0EA93E1E0F0E0A9
:10019600E419F509EA930E94E302E0E2EA930E9479
:1001A600030308950A921A92FA926A937A938A93AB
:1001B6009A93AA93BA93EA93FA93EFB7EA93F20162
:1001C60031962F01E4E6F0E00E947A03E2E0F0E0E7
:1001D600E415F50511F444245524E991EFBFF9918E
:1001E600E991B991A9919991899179916991F9903A
:1001F6001990099018950E94F402E0E6F2E00E9438
:100206007E03E0E0EA93E1E0EA930E94E302E091F4
:10021600CD02F091CE02FA93EA93E1EDF2E0FA9381
:10022600EA930E946902EDE6F2E00E947E03E1EDA8
:10023600F2E00E947E03B09B06C0E8EEF3E00E9467
:100246007A0366DFE9D0F7CFAFE8B2E0F2010E94A9
:100256008203E130A0E0FA0709F4CDDFAFE8B2E0AF
:10026600E1E0F0E0E419F5090E948203E230A0E043
:10027600FA0709F4C0DFE0918F02F09190023297FD
:1002860041F0E0919102F0919202E230A0E0FA078B
:10029600E1F4ADECB2E0ED91FD913196FE93EE9373
:1002A600A091CD02B091CE0212977CF0A091CD0222
:1002B600B091CE020E948903309739F4AFECB2E0D8
:1002C600ED91FD913197FE93EE93F60131966F0114
:1002D6000E949502DF010E948903EC0DFD1DDF01DE
:1002E6000E9489036F010E949502EC0DFD1DDF013E
:1002F600E4E0F0E00E9411043F01E1E0F0E0E615E1
:10030600F70531F40E948E03E1E0F0E00E949603C7
:10031600062C072851F40E948E030E9475030E9442
:10032600A303E1E0F0E0ED93FC93E3E0F0E0E615F3
:10033600F70551F40E948E030E9475030E94A303E1
:10034600E2E0F0E0ED93FC93E2E0F0E0E615F7057D
:1003560031F40E948E03E2E0F0E00E949603E1E0B1
:10036600F0E04F01EFE0F0E08E169F06E4F40E9405
:100376006703EA0FFB1F0E94AE030E941F04D00111
:10038600ED93FC930E946703EA0FFB1F32960E94CF
:10039600AE0312960E941F04D001ED93FC93F40164
:1003A60031964F01DFCF0895EFE0F0E04F01E1E035
:1003B600F0E08E169F067CF1AA24BB24E2E0F0E072
:1003C600AE16BF0624F58A92AA920E94E3020E9404
:1003D60067030E946D030E941F04E130A0E0FA0744
:1003E60011F4E0E30DC00E9467030E946D030E94B2
:1003F6001F04E230A0E0FA0711F4E1E301C0E0E2F5
:10040600EA930E940303F50131965F01D7CFF40109
:1004160031974F01CCCF0895E0E0EBBBEABBE8BBD8
:10042600E7BBE5BBE4BBE2BBE1BBE3BFE2BFECBFBE
:10043600EFBDEEBDEDBDECBDE7BDE6BDEBBDEABD76
:10044600E9BDE8BDE2BDE5BDE4BDE3BDEBB7E062F5
:10045600EBBFE0E0E5BFE0E4E4BFE0E2EABFE0E0F6
:10046600E9BFEAB9E0E8E8B9E0E0E0BFE6B9E6BF2F
:10047600E0E1EA930E9433037894ECE7F2E00E940D
:100486007E03B09B21C0E2E3F0E00E947A03ABEC6E
:10049600B2E0ED91FD913196FE93EE93319784DFB4
:1004A6006ADEE091CF02F091D002A091CB02B0912A
:1004B600CC020E941104309731F4C6DEE0E0E093EE
:1004C600CB02E093CC02E3CFDCCFFFCFA991B99169
:1004D600E991F99130962AF4E095F09531966DE21E
:1004E6006D93E89480E197E20DD088EE93E00AD010
:1004F60084E6992707D08AE005D06E2F10D06627AC
:100506006C9308956627E817F90720F06395E81BB2
:10051600F90BC9F7662311F416F008956894605D27
:100526006D930895E091DB02F091DC026091DD02AB
:100536007091DE02ADE6BEE486EC91E40E94DE0335
:10054600EE59F8486F4F7F4FE093DB02F093DC02E1
:100556006093DD027093DE02FB01FF770895E88168
:10056600E07111F0AC9A01C0AC98E881E07211F02C
:10057600AD9A01C0AD98E881E07411F0AE9A01C061
:10058600AE98E881E07811F0AF9A01C0AF9885E0A7
:100596008A95F1F7AA9A8DE08A95F1F7AA988DE0E7
:1005A6008A95F1F78FC0E881EA93D9DFE881E29571
:1005B600E883E881EA93D3DF85E88A95F1F782C07C
:1005C600E881F0E0E152FD4FE081A981EA0FEA936C
:1005D600EADFE981E093E302E881E093E402229610
:1005E6000895E2E00E94B503ECE0EA93DCDFE1E087
:1005F6000E94B503E0E0E093E402E093E30208958D
:10060600A881AA3031F0E091E502A091E302AE178D
:1006160068F0E0E0EA93E091E402EF5FE093E40241
:10062600EA93CEDFA881AA3009F44CC0E091E30238
:10063600EF5FE093E302A89AE881EA93B4DFA89813
:1006460041C01A93A981BA81ED91A983BA831E2F5D
:10065600E03019F01A93D4DFF5CF18812396089568
:10066600A49AA59AA69AA79AA29AA09AA19AAA9893
:10067600A898A998E881E093E502E058E093E102A2
:10068600E881E054E093E202E4E1F0E00E947A03BC
:100696000E94BB030E94BB030E94BB03E0E2EA93F5
:1006A6005EDF88EC90E00197F1F7E8E2EA937BDF02
:1006B600E4E0EA9378DFE5E8EA9375DFE6E0EA93BB
:1006C60072DF8FDF21960895F401ABE8B2E00E9455
:1006D600D4030895AE0FBF1FF501EE0FFF1FAE0F37
:1006E600BF1F0895E0E0F0E0ED93FC930895FA93C0
:1006F600EA930C94C403FA93EA930C942403EE0F42
:10070600FF1FAE0FBF1F0E941F040895E2E0F0E036
:100716000E9411040895A7ECB2E0F601EE0FFF1F48
:10072600AE0FBF1F0895ED93FC93A7ECB2E0E1E096
:10073600F0E0EC19FD09EE0FFF1FAE0FBF1FD2CF81
:10074600A7ECB2E0E1E0F0E0EC19FD09EE0FFF1FC7
:10075600AE0FBF1F08950F01D4010E94D903A15700
:10076600BD4F0895EA930E94D602E3E0F0E0BFCFC2
:10077600E0E3EA930E94B20288EC90E00197F1F779
:100786000895E991F991309639F080ED97E0019757
:10079600F1F7A8953197C9F70895F195E195F040DD
:1007A6000895EE0FFF1FEE0FFF1F0895AA0FBB1F40
:1007B600AA0FBB1F08957A9F702D6B9F700DF89F2F
:1007C600700DE99F700D6A9F602D710DFB9F600D86
:1007D600711DE89F600D711D8827FA9FF02D610D30
:1007E600781FEB9FF00D611D781FEA9FE02DF10D3C
:1007F600681F781F08950024112490E1AA0FBB1FDB
:10080600001C111C0E1A1F0A18F40E0E1F1E01C022
:10081600A1609A9599F7FD01D0010895E894B7FF74
:1008260004C0A095B09511966894F7FDB6DFE3DF96
:10083600FD010EF4B2DF0895ED91FC911197089534
:00000001FF
