:0C0000000C942F000C949D000C949E00AA
:10000C000C9400000C9400000C9400000C94000064
:10001C000C9400000C9400000C9400000C94000054
:10002C000C9400000C9400000C9400000C94000044
:10003C000C9400000C9400000C9400000C94000034
:10004C000C9400000C94000000000200040054000A
:10005C000000F894EE27ECBBF1E0FBBFEBBFE5BF73
:10006C00F8E1F1BDE1BD8DE0A2E0BB27ED938A95EF
:10007C00E9F780E098E0A0E6ED930197E9F7E6E573
:10008C00F0E085919591009761F0A591B59105905F
:10009C001590BF01F00105900D920197E1F7FB015E
:1000AC00F0CFEFE5EDBFE8E0EEBFC0E6D2E00C9498
:1000BC009F00E881F981309711F4E8E8E2BBA88150
:1000CC00B981119711F4EBEEE2BBA881B9811297BB
:1000DC0011F4ECE4E2BBA881B981139711F4E9E4C3
:1000EC00E2BBA881B981149711F4EBE2E2BBA881C1
:1000FC00B981159711F4E9E1E2BBA881B981169792
:10010C0011F4E8E1E2BBA881B981179711F4EBEC8B
:10011C00E2BBA881B981189711F4E8E0E2BBA88191
:10012C00B981199711F4E9E0E2BB2296089518956C
:10013C001895E0E0EBBBEABBE8BBE7BBE5BBE4BB77
:10014C00E2BBEFEFE1BBE0E0E3BFE2BFECBFEFBD32
:10015C00EEBDEDBDECBDE7BDE6BDEBBDEABDE9BD59
:10016C00E8BDE2BDE5BDE4BDE3BDEBB7E06CEBBFC4
:10017C00EEE0E5BFE0E0E4BFE0ECEABFE0E0E9BFC1
:10018C00EAB9E0E8E8B9E0E0E0BFE6B9EDB9E6BF0E
:10019C007894B09B12C0F20131962F013197D201A5
:1001AC00EAE0F0E00E940801FA93EA9382DFE4E6C9
:1001BC00F0E0FA93EA930E94E500EBCFFFCFE991D0
:1001CC00F991309639F080ED97E00197F1F7A89509
:1001DC003197C9F70895F195E195F0400895002401
:1001EC00112490E1AA0FBB1F001C111C0E1A1F0A30
:1001FC0018F40E0E1F1E01C0A1609A9599F7FD010F
:10020C00D0010895E894B7FF04C0A095B09511965D
:10021C006894F7FDE0DFE3DFFD010EF4DCDF089509
:00000001FF
